{
  "address": "0x5FbDB2315678afecb367f032d93F642f64180aa3",
  "abi": [
    {
      "inputs": [
        {
          "internalType": "address",
          "name": "_owner",
          "type": "address"
        }
      ],
      "stateMutability": "nonpayable",
      "type": "constructor"
    },
    {
      "anonymous": false,
      "inputs": [
        {
          "indexed": true,
          "internalType": "address",
          "name": "owner",
          "type": "address"
        },
        {
          "indexed": true,
          "internalType": "address",
          "name": "spender",
          "type": "address"
        },
        {
          "indexed": false,
          "internalType": "uint256",
          "name": "value",
          "type": "uint256"
        }
      ],
      "name": "Approval",
      "type": "event"
    },
    {
      "anonymous": false,
      "inputs": [
        {
          "indexed": false,
          "internalType": "address",
          "name": "whoItFor",
          "type": "address"
        },
        {
          "indexed": false,
          "internalType": "address",
          "name": "whoCompletedIt",
          "type": "address"
        },
        {
          "indexed": false,
          "internalType": "uint256",
          "name": "forAmount",
          "type": "uint256"
        },
        {
          "indexed": false,
          "internalType": "bool",
          "name": "waitForConformation",
          "type": "bool"
        }
      ],
      "name": "CompletingJob",
      "type": "event"
    },
    {
      "anonymous": false,
      "inputs": [
        {
          "indexed": false,
          "internalType": "uint256",
          "name": "amount",
          "type": "uint256"
        },
        {
          "indexed": false,
          "internalType": "uint256",
          "name": "timestamp",
          "type": "uint256"
        }
      ],
      "name": "PaidForAJob",
      "type": "event"
    },
    {
      "anonymous": false,
      "inputs": [
        {
          "indexed": true,
          "internalType": "address",
          "name": "from",
          "type": "address"
        },
        {
          "indexed": true,
          "internalType": "address",
          "name": "to",
          "type": "address"
        },
        {
          "indexed": false,
          "internalType": "uint256",
          "name": "value",
          "type": "uint256"
        }
      ],
      "name": "Transfer",
      "type": "event"
    },
    {
      "inputs": [
        {
          "internalType": "address",
          "name": "_token",
          "type": "address"
        },
        {
          "internalType": "uint256",
          "name": "jobId",
          "type": "uint256"
        }
      ],
      "name": "Jobdeposit",
      "outputs": [],
      "stateMutability": "payable",
      "type": "function"
    },
    {
      "inputs": [
        {
          "internalType": "address",
          "name": "_address",
          "type": "address"
        },
        {
          "internalType": "address",
          "name": "_token",
          "type": "address"
        }
      ],
      "name": "allowance",
      "outputs": [
        {
          "internalType": "uint256",
          "name": "",
          "type": "uint256"
        }
      ],
      "stateMutability": "view",
      "type": "function"
    },
    {
      "inputs": [
        {
          "internalType": "address",
          "name": "spender",
          "type": "address"
        },
        {
          "internalType": "uint256",
          "name": "amount",
          "type": "uint256"
        }
      ],
      "name": "approve",
      "outputs": [
        {
          "internalType": "bool",
          "name": "",
          "type": "bool"
        }
      ],
      "stateMutability": "nonpayable",
      "type": "function"
    },
    {
      "inputs": [
        {
          "internalType": "address",
          "name": "_token",
          "type": "address"
        },
        {
          "internalType": "address",
          "name": "spender",
          "type": "address"
        },
        {
          "internalType": "uint256",
          "name": "amount",
          "type": "uint256"
        }
      ],
      "name": "approveTokenSpend",
      "outputs": [
        {
          "internalType": "bool",
          "name": "",
          "type": "bool"
        }
      ],
      "stateMutability": "nonpayable",
      "type": "function"
    },
    {
      "inputs": [
        {
          "internalType": "address",
          "name": "_address",
          "type": "address"
        },
        {
          "internalType": "uint256",
          "name": "jobId",
          "type": "uint256"
        }
      ],
      "name": "assignJob",
      "outputs": [],
      "stateMutability": "nonpayable",
      "type": "function"
    },
    {
      "inputs": [
        {
          "internalType": "address",
          "name": "account",
          "type": "address"
        }
      ],
      "name": "balanceOf",
      "outputs": [
        {
          "internalType": "uint256",
          "name": "",
          "type": "uint256"
        }
      ],
      "stateMutability": "view",
      "type": "function"
    },
    {
      "inputs": [
        {
          "internalType": "address",
          "name": "_address",
          "type": "address"
        },
        {
          "internalType": "address",
          "name": "_token",
          "type": "address"
        }
      ],
      "name": "balanceOf",
      "outputs": [
        {
          "internalType": "uint256",
          "name": "",
          "type": "uint256"
        }
      ],
      "stateMutability": "view",
      "type": "function"
    },
    {
      "inputs": [
        {
          "internalType": "address",
          "name": "_address",
          "type": "address"
        },
        {
          "components": [
            {
              "internalType": "uint256",
              "name": "id",
              "type": "uint256"
            },
            {
              "internalType": "uint8",
              "name": "rating",
              "type": "uint8"
            },
            {
              "internalType": "string",
              "name": "review",
              "type": "string"
            },
            {
              "internalType": "uint256",
              "name": "jobId",
              "type": "uint256"
            }
          ],
          "internalType": "struct Detasker.Rating",
          "name": "_rating",
          "type": "tuple"
        },
        {
          "internalType": "uint256",
          "name": "jobId",
          "type": "uint256"
        }
      ],
      "name": "completeJob",
      "outputs": [],
      "stateMutability": "nonpayable",
      "type": "function"
    },
    {
      "inputs": [
        {
          "internalType": "address",
          "name": "_address",
          "type": "address"
        },
        {
          "components": [
            {
              "internalType": "uint256",
              "name": "id",
              "type": "uint256"
            },
            {
              "internalType": "bool",
              "name": "isFreelancer",
              "type": "bool"
            },
            {
              "internalType": "bool",
              "name": "active",
              "type": "bool"
            },
            {
              "internalType": "string",
              "name": "mainSkills",
              "type": "string"
            },
            {
              "internalType": "uint256[]",
              "name": "skillsId",
              "type": "uint256[]"
            }
          ],
          "internalType": "struct Detasker.Freelance",
          "name": "freelance",
          "type": "tuple"
        }
      ],
      "name": "createFreelance",
      "outputs": [],
      "stateMutability": "nonpayable",
      "type": "function"
    },
    {
      "inputs": [
        {
          "internalType": "address",
          "name": "_address",
          "type": "address"
        },
        {
          "components": [
            {
              "internalType": "bool",
              "name": "hasFunds",
              "type": "bool"
            },
            {
              "internalType": "uint256",
              "name": "id",
              "type": "uint256"
            },
            {
              "internalType": "uint256",
              "name": "profileId",
              "type": "uint256"
            },
            {
              "internalType": "string",
              "name": "title",
              "type": "string"
            },
            {
              "internalType": "string",
              "name": "description",
              "type": "string"
            },
            {
              "internalType": "string[]",
              "name": "img",
              "type": "string[]"
            },
            {
              "internalType": "address",
              "name": "owner",
              "type": "address"
            },
            {
              "internalType": "address",
              "name": "requester",
              "type": "address"
            },
            {
              "internalType": "uint256",
              "name": "postedDate",
              "type": "uint256"
            },
            {
              "internalType": "uint256",
              "name": "date",
              "type": "uint256"
            },
            {
              "internalType": "uint256",
              "name": "datePaid",
              "type": "uint256"
            },
            {
              "internalType": "string",
              "name": "documents",
              "type": "string"
            },
            {
              "internalType": "uint256",
              "name": "requestedPaymentAmount",
              "type": "uint256"
            },
            {
              "internalType": "address",
              "name": "token",
              "type": "address"
            },
            {
              "internalType": "uint256[]",
              "name": "tags",
              "type": "uint256[]"
            },
            {
              "internalType": "bool",
              "name": "publish",
              "type": "bool"
            },
            {
              "internalType": "bool",
              "name": "completed",
              "type": "bool"
            },
            {
              "internalType": "bool",
              "name": "paid",
              "type": "bool"
            },
            {
              "internalType": "bool",
              "name": "assigned",
              "type": "bool"
            },
            {
              "internalType": "uint256",
              "name": "dateCompleted",
              "type": "uint256"
            },
            {
              "internalType": "uint256",
              "name": "datePublished",
              "type": "uint256"
            },
            {
              "internalType": "uint256[]",
              "name": "dispute",
              "type": "uint256[]"
            },
            {
              "internalType": "bool",
              "name": "deleted",
              "type": "bool"
            }
          ],
          "internalType": "struct Detasker.Job",
          "name": "_job",
          "type": "tuple"
        }
      ],
      "name": "createJob",
      "outputs": [],
      "stateMutability": "nonpayable",
      "type": "function"
    },
    {
      "inputs": [
        {
          "internalType": "address",
          "name": "_address",
          "type": "address"
        },
        {
          "components": [
            {
              "internalType": "uint256",
              "name": "id",
              "type": "uint256"
            },
            {
              "internalType": "uint256",
              "name": "profileId",
              "type": "uint256"
            },
            {
              "internalType": "string",
              "name": "skill",
              "type": "string"
            },
            {
              "internalType": "string",
              "name": "url",
              "type": "string"
            },
            {
              "internalType": "address",
              "name": "user",
              "type": "address"
            }
          ],
          "internalType": "struct Detasker.Skill",
          "name": "_skill",
          "type": "tuple"
        }
      ],
      "name": "createSkill",
      "outputs": [],
      "stateMutability": "nonpayable",
      "type": "function"
    },
    {
      "inputs": [
        {
          "internalType": "address",
          "name": "_address",
          "type": "address"
        },
        {
          "components": [
            {
              "internalType": "string",
              "name": "name",
              "type": "string"
            },
            {
              "internalType": "string",
              "name": "url",
              "type": "string"
            }
          ],
          "internalType": "struct Detasker.Social",
          "name": "_social",
          "type": "tuple"
        }
      ],
      "name": "createSocial",
      "outputs": [],
      "stateMutability": "nonpayable",
      "type": "function"
    },
    {
      "inputs": [
        {
          "internalType": "address",
          "name": "_address",
          "type": "address"
        },
        {
          "components": [
            {
              "internalType": "string",
              "name": "name",
              "type": "string"
            },
            {
              "internalType": "string",
              "name": "email",
              "type": "string"
            },
            {
              "components": [
                {
                  "internalType": "uint256",
                  "name": "id",
                  "type": "uint256"
                },
                {
                  "internalType": "bool",
                  "name": "isFreelancer",
                  "type": "bool"
                },
                {
                  "internalType": "bool",
                  "name": "active",
                  "type": "bool"
                },
                {
                  "internalType": "string",
                  "name": "mainSkills",
                  "type": "string"
                },
                {
                  "internalType": "uint256[]",
                  "name": "skillsId",
                  "type": "uint256[]"
                }
              ],
              "internalType": "struct Detasker.Freelance",
              "name": "freelance",
              "type": "tuple"
            },
            {
              "internalType": "string",
              "name": "image",
              "type": "string"
            },
            {
              "components": [
                {
                  "internalType": "string",
                  "name": "name",
                  "type": "string"
                },
                {
                  "internalType": "string",
                  "name": "url",
                  "type": "string"
                }
              ],
              "internalType": "struct Detasker.Social[]",
              "name": "socials",
              "type": "tuple[]"
            },
            {
              "components": [
                {
                  "internalType": "uint256",
                  "name": "id",
                  "type": "uint256"
                },
                {
                  "internalType": "string",
                  "name": "description",
                  "type": "string"
                },
                {
                  "internalType": "string",
                  "name": "url",
                  "type": "string"
                }
              ],
              "internalType": "struct Detasker.ShowcaseWork[]",
              "name": "showcaseWork",
              "type": "tuple[]"
            },
            {
              "components": [
                {
                  "internalType": "uint256",
                  "name": "id",
                  "type": "uint256"
                },
                {
                  "internalType": "uint256",
                  "name": "profileId",
                  "type": "uint256"
                },
                {
                  "internalType": "string",
                  "name": "skill",
                  "type": "string"
                },
                {
                  "internalType": "string",
                  "name": "url",
                  "type": "string"
                },
                {
                  "internalType": "address",
                  "name": "user",
                  "type": "address"
                }
              ],
              "internalType": "struct Detasker.Skill[]",
              "name": "skills",
              "type": "tuple[]"
            }
          ],
          "internalType": "struct Detasker.NewProfile",
          "name": "_profile",
          "type": "tuple"
        }
      ],
      "name": "createUser",
      "outputs": [],
      "stateMutability": "nonpayable",
      "type": "function"
    },
    {
      "inputs": [],
      "name": "decimals",
      "outputs": [
        {
          "internalType": "uint8",
          "name": "",
          "type": "uint8"
        }
      ],
      "stateMutability": "view",
      "type": "function"
    },
    {
      "inputs": [
        {
          "internalType": "address",
          "name": "spender",
          "type": "address"
        },
        {
          "internalType": "uint256",
          "name": "subtractedValue",
          "type": "uint256"
        }
      ],
      "name": "decreaseAllowance",
      "outputs": [
        {
          "internalType": "bool",
          "name": "",
          "type": "bool"
        }
      ],
      "stateMutability": "nonpayable",
      "type": "function"
    },
    {
      "inputs": [
        {
          "internalType": "uint256",
          "name": "_days",
          "type": "uint256"
        }
      ],
      "name": "getConformationDays",
      "outputs": [
        {
          "internalType": "uint256",
          "name": "",
          "type": "uint256"
        }
      ],
      "stateMutability": "pure",
      "type": "function"
    },
    {
      "inputs": [
        {
          "internalType": "uint256",
          "name": "_jobId",
          "type": "uint256"
        }
      ],
      "name": "getJobById",
      "outputs": [
        {
          "components": [
            {
              "internalType": "bool",
              "name": "hasFunds",
              "type": "bool"
            },
            {
              "internalType": "uint256",
              "name": "id",
              "type": "uint256"
            },
            {
              "internalType": "uint256",
              "name": "profileId",
              "type": "uint256"
            },
            {
              "internalType": "string",
              "name": "title",
              "type": "string"
            },
            {
              "internalType": "string",
              "name": "description",
              "type": "string"
            },
            {
              "internalType": "string[]",
              "name": "img",
              "type": "string[]"
            },
            {
              "internalType": "address",
              "name": "owner",
              "type": "address"
            },
            {
              "internalType": "address",
              "name": "requester",
              "type": "address"
            },
            {
              "internalType": "uint256",
              "name": "postedDate",
              "type": "uint256"
            },
            {
              "internalType": "uint256",
              "name": "date",
              "type": "uint256"
            },
            {
              "internalType": "uint256",
              "name": "datePaid",
              "type": "uint256"
            },
            {
              "internalType": "string",
              "name": "documents",
              "type": "string"
            },
            {
              "internalType": "uint256",
              "name": "requestedPaymentAmount",
              "type": "uint256"
            },
            {
              "internalType": "address",
              "name": "token",
              "type": "address"
            },
            {
              "internalType": "uint256[]",
              "name": "tags",
              "type": "uint256[]"
            },
            {
              "internalType": "bool",
              "name": "publish",
              "type": "bool"
            },
            {
              "internalType": "bool",
              "name": "completed",
              "type": "bool"
            },
            {
              "internalType": "bool",
              "name": "paid",
              "type": "bool"
            },
            {
              "internalType": "bool",
              "name": "assigned",
              "type": "bool"
            },
            {
              "internalType": "uint256",
              "name": "dateCompleted",
              "type": "uint256"
            },
            {
              "internalType": "uint256",
              "name": "datePublished",
              "type": "uint256"
            },
            {
              "internalType": "uint256[]",
              "name": "dispute",
              "type": "uint256[]"
            },
            {
              "internalType": "bool",
              "name": "deleted",
              "type": "bool"
            }
          ],
          "internalType": "struct Detasker.Job",
          "name": "",
          "type": "tuple"
        }
      ],
      "stateMutability": "view",
      "type": "function"
    },
    {
      "inputs": [
        {
          "internalType": "uint256",
          "name": "_jobId",
          "type": "uint256"
        },
        {
          "internalType": "address",
          "name": "_address",
          "type": "address"
        }
      ],
      "name": "getJobById",
      "outputs": [
        {
          "components": [
            {
              "internalType": "bool",
              "name": "hasFunds",
              "type": "bool"
            },
            {
              "internalType": "uint256",
              "name": "id",
              "type": "uint256"
            },
            {
              "internalType": "uint256",
              "name": "profileId",
              "type": "uint256"
            },
            {
              "internalType": "string",
              "name": "title",
              "type": "string"
            },
            {
              "internalType": "string",
              "name": "description",
              "type": "string"
            },
            {
              "internalType": "string[]",
              "name": "img",
              "type": "string[]"
            },
            {
              "internalType": "address",
              "name": "owner",
              "type": "address"
            },
            {
              "internalType": "address",
              "name": "requester",
              "type": "address"
            },
            {
              "internalType": "uint256",
              "name": "postedDate",
              "type": "uint256"
            },
            {
              "internalType": "uint256",
              "name": "date",
              "type": "uint256"
            },
            {
              "internalType": "uint256",
              "name": "datePaid",
              "type": "uint256"
            },
            {
              "internalType": "string",
              "name": "documents",
              "type": "string"
            },
            {
              "internalType": "uint256",
              "name": "requestedPaymentAmount",
              "type": "uint256"
            },
            {
              "internalType": "address",
              "name": "token",
              "type": "address"
            },
            {
              "internalType": "uint256[]",
              "name": "tags",
              "type": "uint256[]"
            },
            {
              "internalType": "bool",
              "name": "publish",
              "type": "bool"
            },
            {
              "internalType": "bool",
              "name": "completed",
              "type": "bool"
            },
            {
              "internalType": "bool",
              "name": "paid",
              "type": "bool"
            },
            {
              "internalType": "bool",
              "name": "assigned",
              "type": "bool"
            },
            {
              "internalType": "uint256",
              "name": "dateCompleted",
              "type": "uint256"
            },
            {
              "internalType": "uint256",
              "name": "datePublished",
              "type": "uint256"
            },
            {
              "internalType": "uint256[]",
              "name": "dispute",
              "type": "uint256[]"
            },
            {
              "internalType": "bool",
              "name": "deleted",
              "type": "bool"
            }
          ],
          "internalType": "struct Detasker.Job",
          "name": "",
          "type": "tuple"
        }
      ],
      "stateMutability": "view",
      "type": "function"
    },
    {
      "inputs": [],
      "name": "getOwner",
      "outputs": [
        {
          "internalType": "address",
          "name": "",
          "type": "address"
        }
      ],
      "stateMutability": "view",
      "type": "function"
    },
    {
      "inputs": [],
      "name": "getUserCount",
      "outputs": [
        {
          "internalType": "uint256",
          "name": "",
          "type": "uint256"
        }
      ],
      "stateMutability": "view",
      "type": "function"
    },
    {
      "inputs": [
        {
          "internalType": "address",
          "name": "spender",
          "type": "address"
        },
        {
          "internalType": "uint256",
          "name": "addedValue",
          "type": "uint256"
        }
      ],
      "name": "increaseAllowance",
      "outputs": [
        {
          "internalType": "bool",
          "name": "",
          "type": "bool"
        }
      ],
      "stateMutability": "nonpayable",
      "type": "function"
    },
    {
      "inputs": [
        {
          "internalType": "address",
          "name": "_token",
          "type": "address"
        },
        {
          "internalType": "uint256",
          "name": "jobId",
          "type": "uint256"
        }
      ],
      "name": "jobWithdraw",
      "outputs": [],
      "stateMutability": "payable",
      "type": "function"
    },
    {
      "inputs": [],
      "name": "name",
      "outputs": [
        {
          "internalType": "string",
          "name": "",
          "type": "string"
        }
      ],
      "stateMutability": "view",
      "type": "function"
    },
    {
      "inputs": [
        {
          "internalType": "address",
          "name": "_token",
          "type": "address"
        },
        {
          "internalType": "uint256",
          "name": "jobId",
          "type": "uint256"
        }
      ],
      "name": "ownerWithdraw",
      "outputs": [],
      "stateMutability": "payable",
      "type": "function"
    },
    {
      "inputs": [
        {
          "internalType": "uint256",
          "name": "_jobId",
          "type": "uint256"
        }
      ],
      "name": "payForJobByOwner",
      "outputs": [],
      "stateMutability": "payable",
      "type": "function"
    },
    {
      "inputs": [
        {
          "internalType": "uint256",
          "name": "_jobId",
          "type": "uint256"
        }
      ],
      "name": "recievePaymentForJobByRequester",
      "outputs": [],
      "stateMutability": "payable",
      "type": "function"
    },
    {
      "inputs": [
        {
          "internalType": "address",
          "name": "_address",
          "type": "address"
        },
        {
          "internalType": "uint256",
          "name": "jobId",
          "type": "uint256"
        }
      ],
      "name": "setJobDoneByOwner",
      "outputs": [],
      "stateMutability": "nonpayable",
      "type": "function"
    },
    {
      "inputs": [
        {
          "internalType": "address",
          "name": "_address",
          "type": "address"
        },
        {
          "internalType": "uint256",
          "name": "jobId",
          "type": "uint256"
        }
      ],
      "name": "setJobDoneByRequester",
      "outputs": [],
      "stateMutability": "nonpayable",
      "type": "function"
    },
    {
      "inputs": [],
      "name": "symbol",
      "outputs": [
        {
          "internalType": "string",
          "name": "",
          "type": "string"
        }
      ],
      "stateMutability": "view",
      "type": "function"
    },
    {
      "inputs": [],
      "name": "timeForConformation",
      "outputs": [
        {
          "internalType": "uint256",
          "name": "",
          "type": "uint256"
        }
      ],
      "stateMutability": "view",
      "type": "function"
    },
    {
      "inputs": [],
      "name": "totalSupply",
      "outputs": [
        {
          "internalType": "uint256",
          "name": "",
          "type": "uint256"
        }
      ],
      "stateMutability": "view",
      "type": "function"
    },
    {
      "inputs": [
        {
          "internalType": "address",
          "name": "to",
          "type": "address"
        },
        {
          "internalType": "uint256",
          "name": "amount",
          "type": "uint256"
        }
      ],
      "name": "transfer",
      "outputs": [
        {
          "internalType": "bool",
          "name": "",
          "type": "bool"
        }
      ],
      "stateMutability": "nonpayable",
      "type": "function"
    },
    {
      "inputs": [
        {
          "internalType": "address",
          "name": "from",
          "type": "address"
        },
        {
          "internalType": "address",
          "name": "to",
          "type": "address"
        },
        {
          "internalType": "uint256",
          "name": "amount",
          "type": "uint256"
        }
      ],
      "name": "transferFrom",
      "outputs": [
        {
          "internalType": "bool",
          "name": "",
          "type": "bool"
        }
      ],
      "stateMutability": "nonpayable",
      "type": "function"
    },
    {
      "inputs": [
        {
          "internalType": "address",
          "name": "",
          "type": "address"
        }
      ],
      "name": "users",
      "outputs": [
        {
          "internalType": "uint256",
          "name": "id",
          "type": "uint256"
        },
        {
          "internalType": "uint256",
          "name": "freeLanceId",
          "type": "uint256"
        },
        {
          "internalType": "string",
          "name": "name",
          "type": "string"
        },
        {
          "internalType": "string",
          "name": "email",
          "type": "string"
        },
        {
          "internalType": "uint256",
          "name": "signedUp",
          "type": "uint256"
        },
        {
          "internalType": "string",
          "name": "image",
          "type": "string"
        }
      ],
      "stateMutability": "view",
      "type": "function"
    },
    {
      "inputs": [],
      "name": "vars",
      "outputs": [
        {
          "internalType": "address",
          "name": "owner",
          "type": "address"
        },
        {
          "internalType": "uint256",
          "name": "jobCount",
          "type": "uint256"
        },
        {
          "internalType": "uint256",
          "name": "freelanceCount",
          "type": "uint256"
        },
        {
          "internalType": "uint256",
          "name": "ratingCount",
          "type": "uint256"
        },
        {
          "internalType": "uint256",
          "name": "tagCount",
          "type": "uint256"
        },
        {
          "internalType": "uint256",
          "name": "skillCount",
          "type": "uint256"
        },
        {
          "internalType": "uint256",
          "name": "userCount",
          "type": "uint256"
        },
        {
          "internalType": "address",
          "name": "bnbToken",
          "type": "address"
        }
      ],
      "stateMutability": "view",
      "type": "function"
    },
    {
      "stateMutability": "payable",
      "type": "receive"
    }
  ],
  "transactionHash": "0x4c50c81134a204dfbd1295f6d7e6c52b7c03386963e38a8719eb55d86c5974fb",
  "args": [
    "0xf39Fd6e51aad88F6F4ce6aB8827279cffFb92266"
  ],
  "numDeployments": 1,
  "solcInputHash": "f8d5e4c20e943e3f90af5352d4540c63",
  "bytecode": "0x608060405262000010601e620000e7565b6013553480156200002057600080fd5b5060405162004371380380620043718339810160408190526200004391620000fe565b604051806040016040528060088152602001672232ba30b9b5b2b960c11b815250604051806040016040528060048152602001636474736b60e01b8152508160039081620000929190620001d5565b506004620000a18282620001d5565b5050600680546001600160a01b039093166001600160a01b0319938416179055506012805490911673ee786a1aa32fc164cca9a28f763fbc835e748129179055620002c7565b6000620000f88262015180620002a1565b92915050565b6000602082840312156200011157600080fd5b81516001600160a01b03811681146200012957600080fd5b9392505050565b634e487b7160e01b600052604160045260246000fd5b600181811c908216806200015b57607f821691505b6020821081036200017c57634e487b7160e01b600052602260045260246000fd5b50919050565b601f821115620001d057600081815260208120601f850160051c81016020861015620001ab5750805b601f850160051c820191505b81811015620001cc57828155600101620001b7565b5050505b505050565b81516001600160401b03811115620001f157620001f162000130565b620002098162000202845462000146565b8462000182565b602080601f831160018114620002415760008415620002285750858301515b600019600386901b1c1916600185901b178555620001cc565b600085815260208120601f198616915b82811015620002725788860151825594840194600190910190840162000251565b5085821015620002915787850151600019600388901b60f8161c191681555b5050505050600190811b01905550565b8082028115828204841417620000f857634e487b7160e01b600052601160045260246000fd5b61409a80620002d76000396000f3fe6080604052600436106102085760003560e01c806395d89b4111610118578063b770242f116100a0578063dbfc25121161006f578063dbfc251214610689578063dd62ed3e146106a9578063e07af654146106c9578063e683e0b2146106dc578063f7888aec146106ef57600080fd5b8063b770242f1461063a578063d1388c751461064d578063d9c88e1414610663578063db9667c71461067657600080fd5b8063a87430ba116100e7578063a87430ba14610593578063a9059cbb146105c5578063ab746299146105e5578063b5cb15f714610605578063b64439161461061a57600080fd5b806395d89b411461051e578063a457c2d714610533578063a76f272014610553578063a7d39dd61461057357600080fd5b806369d7428f1161019b5780638412277d1161016a5780638412277d146104765780638937574c14610496578063893d20e8146104b6578063957822e7146104de57806395d1d3b0146104fe57600080fd5b806369d7428f146103d357806370a08231146104005780637155b4f9146104365780637bf8d39b1461045657600080fd5b806318160ddd116101d757806318160ddd1461035857806323b872dd14610377578063313ce5671461039757806339509351146103b357600080fd5b806306fdde0314610252578063095ea7b31461027d5780630b27c9ab146102ad5780630e5376d6146102cf57600080fd5b3661024d573360009081526005602090815260408083206012546001600160a01b0316845260090190915281208054349290610245908490612d89565b925050819055005b600080fd5b34801561025e57600080fd5b50610267610739565b6040516102749190612de2565b60405180910390f35b34801561028957600080fd5b5061029d610298366004612e11565b6107cb565b6040519015158152602001610274565b3480156102b957600080fd5b506102cd6102c836600461302a565b6107e5565b005b3480156102db57600080fd5b50600654600c54600d54600e54600f5460105460115460125461030e976001600160a01b03908116979695949392911688565b604080516001600160a01b03998a16815260208101989098528701959095526060860193909352608085019190915260a084015260c083015290911660e082015261010001610274565b34801561036457600080fd5b506002545b604051908152602001610274565b34801561038357600080fd5b5061029d610392366004613077565b610842565b3480156103a357600080fd5b5060405160128152602001610274565b3480156103bf57600080fd5b5061029d6103ce366004612e11565b610866565b3480156103df57600080fd5b506103f36103ee3660046130b3565b610888565b604051610274919061315c565b34801561040c57600080fd5b5061036961041b36600461335a565b6001600160a01b031660009081526020819052604090205490565b34801561044257600080fd5b506102cd610451366004612e11565b610d6b565b34801561046257600080fd5b506103f3610471366004613375565b610d9d565b34801561048257600080fd5b5061029d610491366004613077565b6112e7565b3480156104a257600080fd5b506102cd6104b13660046133a1565b611366565b3480156104c257600080fd5b506006546040516001600160a01b039091168152602001610274565b3480156104ea57600080fd5b506103696104f93660046130b3565b61152a565b34801561050a57600080fd5b506102cd610519366004612e11565b611539565b34801561052a57600080fd5b506102676115bc565b34801561053f57600080fd5b5061029d61054e366004612e11565b6115cb565b34801561055f57600080fd5b506102cd61056e3660046134e9565b611646565b34801561057f57600080fd5b506102cd61058e366004612e11565b611752565b34801561059f57600080fd5b506105b36105ae36600461335a565b611778565b6040516102749695949392919061352c565b3480156105d157600080fd5b5061029d6105e0366004612e11565b611945565b3480156105f157600080fd5b506102cd6106003660046138af565b611953565b34801561061157600080fd5b50601154610369565b34801561062657600080fd5b506102cd610635366004613a85565b611b6a565b6102cd6106483660046130b3565b611de5565b34801561065957600080fd5b5061036960135481565b6102cd610671366004612e11565b611f0e565b6102cd6106843660046130b3565b612090565b34801561069557600080fd5b506102cd6106a4366004613cb7565b612187565b3480156106b557600080fd5b506103696106c4366004613cfa565b61231c565b6102cd6106d7366004612e11565b612390565b6102cd6106ea366004612e11565b61246f565b3480156106fb57600080fd5b5061036961070a366004613cfa565b6001600160a01b0391821660009081526005602090815260408083209390941682526009909201909152205490565b60606003805461074890613d24565b80601f016020809104026020016040519081016040528092919081815260200182805461077490613d24565b80156107c15780601f10610796576101008083540402835291602001916107c1565b820191906000526020600020905b8154815290600101906020018083116107a457829003601f168201915b5050505050905090565b6000336107d9818585612640565b60019150505b92915050565b6001600160a01b0382166000908152600560209081526040822060040180546001810182559083529120825183926002029091019081906108269082613dac565b506020820151600182019061083b9082613dac565b5050505050565b600033610850858285612764565b61085b8585856127de565b506001949350505050565b6000336107d9818585610879838361231c565b6108839190612d89565b612640565b610890612b92565b6000600660010183815481106108a8576108a8613e6b565b9060005260206000209060140201604051806102e00160405290816000820160009054906101000a900460ff16151515158152602001600182015481526020016002820154815260200160038201805461090190613d24565b80601f016020809104026020016040519081016040528092919081815260200182805461092d90613d24565b801561097a5780601f1061094f5761010080835404028352916020019161097a565b820191906000526020600020905b81548152906001019060200180831161095d57829003601f168201915b5050505050815260200160048201805461099390613d24565b80601f01602080910402602001604051908101604052809291908181526020018280546109bf90613d24565b8015610a0c5780601f106109e157610100808354040283529160200191610a0c565b820191906000526020600020905b8154815290600101906020018083116109ef57829003601f168201915b5050505050815260200160058201805480602002602001604051908101604052809291908181526020016000905b82821015610ae6578382906000526020600020018054610a5990613d24565b80601f0160208091040260200160405190810160405280929190818152602001828054610a8590613d24565b8015610ad25780601f10610aa757610100808354040283529160200191610ad2565b820191906000526020600020905b815481529060010190602001808311610ab557829003601f168201915b505050505081526020019060010190610a3a565b5050509082525060068201546001600160a01b03908116602083015260078301541660408201526008820154606082015260098201546080820152600a82015460a0820152600b8201805460c090920191610b4090613d24565b80601f0160208091040260200160405190810160405280929190818152602001828054610b6c90613d24565b8015610bb95780601f10610b8e57610100808354040283529160200191610bb9565b820191906000526020600020905b815481529060010190602001808311610b9c57829003601f168201915b50505050508152602001600c8201548152602001600d820160009054906101000a90046001600160a01b03166001600160a01b03166001600160a01b03168152602001600e8201805480602002602001604051908101604052809291908181526020018280548015610c4a57602002820191906000526020600020905b815481526020019060010190808311610c36575b5050509183525050600f82015460ff8082161515602080850191909152610100830482161515604080860191909152620100008404831615156060860152630100000090930490911615156080840152601084015460a0840152601184015460c084015260128401805483518184028101840190945280845260e0909401939091830182828015610cfa57602002820191906000526020600020905b815481526020019060010190808311610ce6575b50505091835250506013919091015460ff1615156020918201528101519091506107df5760405162461bcd60e51b815260206004820181905260248201527f556e61626c6520746f206765742061206a6f622077697468207468617420696460448201526064015b60405180910390fd5b6000610d7682610888565b60016102408201526001600160a01b03841660e08201529050610d9881612982565b505050565b610da5612b92565b600060066001018481548110610dbd57610dbd613e6b565b9060005260206000209060140201604051806102e00160405290816000820160009054906101000a900460ff161515151581526020016001820154815260200160028201548152602001600382018054610e1690613d24565b80601f0160208091040260200160405190810160405280929190818152602001828054610e4290613d24565b8015610e8f5780601f10610e6457610100808354040283529160200191610e8f565b820191906000526020600020905b815481529060010190602001808311610e7257829003601f168201915b50505050508152602001600482018054610ea890613d24565b80601f0160208091040260200160405190810160405280929190818152602001828054610ed490613d24565b8015610f215780601f10610ef657610100808354040283529160200191610f21565b820191906000526020600020905b815481529060010190602001808311610f0457829003601f168201915b5050505050815260200160058201805480602002602001604051908101604052809291908181526020016000905b82821015610ffb578382906000526020600020018054610f6e90613d24565b80601f0160208091040260200160405190810160405280929190818152602001828054610f9a90613d24565b8015610fe75780601f10610fbc57610100808354040283529160200191610fe7565b820191906000526020600020905b815481529060010190602001808311610fca57829003601f168201915b505050505081526020019060010190610f4f565b5050509082525060068201546001600160a01b03908116602083015260078301541660408201526008820154606082015260098201546080820152600a82015460a0820152600b8201805460c09092019161105590613d24565b80601f016020809104026020016040519081016040528092919081815260200182805461108190613d24565b80156110ce5780601f106110a3576101008083540402835291602001916110ce565b820191906000526020600020905b8154815290600101906020018083116110b157829003601f168201915b50505050508152602001600c8201548152602001600d820160009054906101000a90046001600160a01b03166001600160a01b03166001600160a01b03168152602001600e820180548060200260200160405190810160405280929190818152602001828054801561115f57602002820191906000526020600020905b81548152602001906001019080831161114b575b5050509183525050600f82015460ff8082161515602080850191909152610100830482161515604080860191909152620100008404831615156060860152630100000090930490911615156080840152601084015460a0840152601184015460c084015260128401805483518184028101840190945280845260e090940193909183018282801561120f57602002820191906000526020600020905b8154815260200190600101908083116111fb575b50505091835250506013919091015460ff16151560209182015281015190915061127b5760405162461bcd60e51b815260206004820181905260248201527f556e61626c6520746f206765742061206a6f62207769746820746861742069646044820152606401610d62565b826001600160a01b03168160c001516001600160a01b0316146112e05760405162461bcd60e51b815260206004820152601c60248201527f546869732069736e277420796f75722061737369676e6564206a6f62000000006044820152606401610d62565b9392505050565b60405163095ea7b360e01b81526001600160a01b038381166004830152602482018390526000919085169063095ea7b3906044016020604051808303816000875af115801561133a573d6000803e3d6000fd5b505050506040513d601f19601f8201168201806040525081019061135e9190613e81565b949350505050565b600061137182610888565b9050836001600160a01b03168160e001516001600160a01b0316146113d85760405162461bcd60e51b815260206004820152601c60248201527f546869732069736e277420796f75722061737369676e6564206a6f62000000006044820152606401610d62565b6005836020015160ff16111561143f5760405162461bcd60e51b815260206004820152602660248201527f506c6561736520676976652074686973206a6f62206120726174696e67206f7560448201526574206f66203560d01b6064820152608401610d62565b600e805490600061144f83613e9e565b9091555050600e5480845260088054859290811061146f5761146f613e6b565b60009182526020918290208351600492909202019081559082015160018201805460ff191660ff909216919091179055604082015160028201906114b39082613dac565b5060609182015160039091015560c082015160e0830151610180840151604080516001600160a01b039485168152939092166020840152908201526001918101919091527ff0df160ccfdc4d85bea09bf3ea667729d9e0c9126b24d28eef8b06e5fe027f2f9060800160405180910390a150505050565b60006107df8262015180613eb7565b600061154482610888565b9050826001600160a01b03168160e001516001600160a01b0316146115a45760405162461bcd60e51b81526020600482015260166024820152752cb7ba903237b713ba1037bbb7103a3434b9903537b160511b6044820152606401610d62565b600161020082015242610260820152610d9881612982565b60606004805461074890613d24565b600033816115d9828661231c565b9050838110156116395760405162461bcd60e51b815260206004820152602560248201527f45524332303a2064656372656173656420616c6c6f77616e63652062656c6f77604482015264207a65726f60d81b6064820152608401610d62565b61085b8286868403612640565b601080546000918261165783613e9e565b909155508083526001600160a01b03841660808401819052600090815260056020526040902060010154600b805492935091811061169757611697613e6b565b60009182526020808320600360049093020191909101805460018101825590835291200181905560098054839190839081106116d5576116d5613e6b565b90600052602060002090600502016000820151816000015560208201518160010155604082015181600201908161170c9190613dac565b50606082015160038201906117219082613dac565b5060809190910151600490910180546001600160a01b0319166001600160a01b039092169190911790556010555050565b600061175e8284610d9d565b6001610200820152426102608201529050610d9881612982565b600560205260009081526040902080546001820154600283018054929391926117a090613d24565b80601f01602080910402602001604051908101604052809291908181526020018280546117cc90613d24565b80156118195780601f106117ee57610100808354040283529160200191611819565b820191906000526020600020905b8154815290600101906020018083116117fc57829003601f168201915b50505050509080600301805461182e90613d24565b80601f016020809104026020016040519081016040528092919081815260200182805461185a90613d24565b80156118a75780601f1061187c576101008083540402835291602001916118a7565b820191906000526020600020905b81548152906001019060200180831161188a57829003601f168201915b5050505050908060050154908060060180546118c290613d24565b80601f01602080910402602001604051908101604052809291908181526020018280546118ee90613d24565b801561193b5780601f106119105761010080835404028352916020019161193b565b820191906000526020600020905b81548152906001019060200180831161191e57829003601f168201915b5050505050905086565b6000336107d98185856127de565b6011805490600061196383613e9e565b90915550506011546001600160a01b038316600090815260056020526040902090815581516002909101906119989082613dac565b506020808201516001600160a01b038416600090815260059092526040909120600201906119c69082613dac565b506001600160a01b0382166000908152600560208190526040909120429181019190915560608201516006909101906119ff9082613dac565b50611a0e828260400151612187565b60c08101515115611abb5760005b8160c0015151811015611ab957306001600160a01b031663a76f2720848460c001518481518110611a4f57611a4f613e6b565b60200260200101516040518363ffffffff1660e01b8152600401611a74929190613ece565b600060405180830381600087803b158015611a8e57600080fd5b505af1158015611aa2573d6000803e3d6000fd5b505050508080611ab190613e9e565b915050611a1c565b505b60808101515115611b665760005b816080015151811015610d9857306001600160a01b0316630b27c9ab8484608001518481518110611afc57611afc613e6b565b60200260200101516040518363ffffffff1660e01b8152600401611b21929190613f46565b600060405180830381600087803b158015611b3b57600080fd5b505af1158015611b4f573d6000803e3d6000fd5b505050508080611b5e90613e9e565b915050611ac9565b5050565b600c8054906000611b7a83613e9e565b9091555050600c5460208201526101e081015115611b9a57426101008201525b6001600160a01b03821660c0820181905260009081526005602090815260408220600c8054600792830180546001810182559086529390942090920192909255548154839291908110611bef57611bef613e6b565b6000918252602091829020835160149290920201805460ff19169115159190911781559082015160018201556040820151600282015560608201516003820190611c399082613dac565b5060808201516004820190611c4e9082613dac565b5060a08201518051611c6a916005840191602090910190612c67565b5060c08201516006820180546001600160a01b039283166001600160a01b03199182161790915560e084015160078401805491909316911617905561010082015160088201556101208201516009820155610140820151600a820155610160820151600b820190611cdb9082613dac565b50610180820151600c8201556101a0820151600d820180546001600160a01b0319166001600160a01b039092169190911790556101c08201518051611d2a91600e840191602090910190612cbd565b506101e0820151600f82018054610200850151610220860151610240870151151563010000000263ff0000001991151562010000029190911663ffff0000199215156101000261ff00199615159690961661ffff1990941693909317949094171617919091179055610260820151601082015561028082015160118201556102a08201518051611dc4916012840191602090910190612cbd565b506102c091909101516013909101805460ff19169115159190911790555050565b6000611df082610888565b905080610220015115611e455760405162461bcd60e51b815260206004820152601d60248201527f54686973206a6f622068617320616c72656164206265656e20706169640000006044820152606401610d62565b80610200015115611e685760405162461bcd60e51b8152600401610d6290613f96565b60c08101516001600160a01b03163314611ebd5760405162461bcd60e51b81526020600482015260166024820152752cb7ba903237b713ba1037bbb7103a3434b9903537b160511b6044820152606401610d62565b611ecc816101a0015183611f0e565b610180810151604080519182524260208301527f181c311d67d2e4613578d57c5d9b50bf646716d62b0bfc741fbd0f76f40b28fe910160405180910390a15050565b6000611f1982610888565b60c0810151604051636eb1769f60e11b81523060048201526001600160a01b03918216602482015291925034919085169063dd62ed3e90604401602060405180830381865afa158015611f70573d6000803e3d6000fd5b505050506040513d601f19601f82011682018060405250810190611f949190613fe3565b10611fb15760405162461bcd60e51b8152600401610d6290613ffc565b8061018001513410610d985760c08101516040516323b872dd60e01b81523060048201526001600160a01b039182166024820152346044820152908416906323b872dd906064015b6020604051808303816000875af1158015612018573d6000803e3d6000fd5b505050506040513d601f19601f8201168201806040525081019061203c9190613e81565b503360009081526005602090815260408083206001600160a01b038716845260090190915281208054349290612073908490614051565b9091555050600161022082015242610140820152610d9881612982565b600061209b82610888565b9050806102200151156120f05760405162461bcd60e51b815260206004820152601d60248201527f54686973206a6f622068617320616c72656164206265656e20706169640000006044820152606401610d62565b806102000151156121135760405162461bcd60e51b8152600401610d6290613f96565b336001600160a01b03168160e001516001600160a01b0316036121785760405162461bcd60e51b815260206004820181905260248201527f596f7520617265206e6f742061737369676e656420746f2074686973206a6f626044820152606401610d62565b611ecc816101a0015183612390565b6001600160a01b03821660009081526005602052604081206001015490036121fd5760405162461bcd60e51b815260206004820152602360248201527f506c6561736520676f207468726f7567682074686520757064617465206d65746044820152621a1bd960ea1b6064820152608401610d62565b600d805490600061220d83613e9e565b9091555050600d548152600b8054600181018255600091909152815160049091027f0175b7a638427703f0dbe7bb9bbf987a2551717b34e79f33b5b1008d1fa01db9810191825560208301517f0175b7a638427703f0dbe7bb9bbf987a2551717b34e79f33b5b1008d1fa01dba82018054604086015115156101000261ff00199315159390931661ffff199091161791909117905560608301518392917f0175b7a638427703f0dbe7bb9bbf987a2551717b34e79f33b5b1008d1fa01dbb01906122d79082613dac565b50608082015180516122f3916003840191602090910190612cbd565b5050600d546001600160a01b039093166000908152600560205260409020600101929092555050565b604051636eb1769f60e11b81523060048201526001600160a01b0383811660248301526000919083169063dd62ed3e90604401602060405180830381865afa15801561236c573d6000803e3d6000fd5b505050506040513d601f19601f820116820180604052508101906112e09190613fe3565b600061239b82610888565b604051636eb1769f60e11b815230600482015233602482015290915034906001600160a01b0385169063dd62ed3e90604401602060405180830381865afa1580156123ea573d6000803e3d6000fd5b505050506040513d601f19601f8201168201806040525081019061240e9190613fe3565b1061242b5760405162461bcd60e51b8152600401610d6290613ffc565b8061018001513410610d98576040516323b872dd60e01b81523060048201523360248201523460448201526001600160a01b038416906323b872dd90606401611ff9565b600061247b8233610d9d565b604051636eb1769f60e11b815233600482015230602482015290915034906001600160a01b0385169063dd62ed3e90604401602060405180830381865afa1580156124ca573d6000803e3d6000fd5b505050506040513d601f19601f820116820180604052508101906124ee9190613fe3565b1061256b5760405162461bcd60e51b815260206004820152604160248201527f416d6f756e7420617070726f766564206973206c657373207468656e20746f6b60448201527f656e207472616e7366657272656420616d6f756e7420746f20636f6e747261636064820152601d60fa1b608482015260a401610d62565b8061018001513410610d985760405163a9059cbb60e01b81523060048201523460248201526001600160a01b0384169063a9059cbb906044016020604051808303816000875af11580156125c3573d6000803e3d6000fd5b505050506040513d601f19601f820116820180604052508101906125e79190613e81565b503360009081526005602090815260408083206001600160a01b03871684526009019091528120805434929061261e908490612d89565b90915550506001600160a01b0383166101a082015260018152610d9881612982565b6001600160a01b0383166126a25760405162461bcd60e51b8152602060048201526024808201527f45524332303a20617070726f76652066726f6d20746865207a65726f206164646044820152637265737360e01b6064820152608401610d62565b6001600160a01b0382166127035760405162461bcd60e51b815260206004820152602260248201527f45524332303a20617070726f766520746f20746865207a65726f206164647265604482015261737360f01b6064820152608401610d62565b6001600160a01b0383811660008181526001602090815260408083209487168084529482529182902085905590518481527f8c5be1e5ebec7d5bd14f71427d1e84f3dd0314c0f7b2291e5b200ac8c7c3b925910160405180910390a3505050565b6000612770848461231c565b905060001981146127d857818110156127cb5760405162461bcd60e51b815260206004820152601d60248201527f45524332303a20696e73756666696369656e7420616c6c6f77616e63650000006044820152606401610d62565b6127d88484848403612640565b50505050565b6001600160a01b0383166128425760405162461bcd60e51b815260206004820152602560248201527f45524332303a207472616e736665722066726f6d20746865207a65726f206164604482015264647265737360d81b6064820152608401610d62565b6001600160a01b0382166128a45760405162461bcd60e51b815260206004820152602360248201527f45524332303a207472616e7366657220746f20746865207a65726f206164647260448201526265737360e81b6064820152608401610d62565b6001600160a01b0383166000908152602081905260409020548181101561291c5760405162461bcd60e51b815260206004820152602660248201527f45524332303a207472616e7366657220616d6f756e7420657863656564732062604482015265616c616e636560d01b6064820152608401610d62565b6001600160a01b03848116600081815260208181526040808320878703905593871680835291849020805487019055925185815290927fddf252ad1be2c89b69c2b068fc378daa952ba7f163c4a11628f55a4df523b3ef910160405180910390a36127d8565b80600660010182602001518154811061299d5761299d613e6b565b6000918252602091829020835160149290920201805460ff191691151591909117815590820151600182015560408201516002820155606082015160038201906129e79082613dac565b50608082015160048201906129fc9082613dac565b5060a08201518051612a18916005840191602090910190612c67565b5060c08201516006820180546001600160a01b039283166001600160a01b03199182161790915560e084015160078401805491909316911617905561010082015160088201556101208201516009820155610140820151600a820155610160820151600b820190612a899082613dac565b50610180820151600c8201556101a0820151600d820180546001600160a01b0319166001600160a01b039092169190911790556101c08201518051612ad891600e840191602090910190612cbd565b506101e0820151600f82018054610200850151610220860151610240870151151563010000000263ff0000001991151562010000029190911663ffff0000199215156101000261ff00199615159690961661ffff1990941693909317949094171617919091179055610260820151601082015561028082015160118201556102a08201518051612b72916012840191602090910190612cbd565b506102c091909101516013909101805460ff191691151591909117905550565b604051806102e00160405280600015158152602001600081526020016000815260200160608152602001606081526020016060815260200160006001600160a01b0316815260200160006001600160a01b03168152602001600081526020016000815260200160008152602001606081526020016000815260200160006001600160a01b03168152602001606081526020016000151581526020016000151581526020016000151581526020016000151581526020016000815260200160008152602001606081526020016000151581525090565b828054828255906000526020600020908101928215612cad579160200282015b82811115612cad5782518290612c9d9082613dac565b5091602001919060010190612c87565b50612cb9929150612d04565b5090565b828054828255906000526020600020908101928215612cf8579160200282015b82811115612cf8578251825591602001919060010190612cdd565b50612cb9929150612d21565b80821115612cb9576000612d188282612d36565b50600101612d04565b5b80821115612cb95760008155600101612d22565b508054612d4290613d24565b6000825580601f10612d52575050565b601f016020900490600052602060002090810190612d709190612d21565b50565b634e487b7160e01b600052601160045260246000fd5b808201808211156107df576107df612d73565b6000815180845260005b81811015612dc257602081850181015186830182015201612da6565b506000602082860101526020601f19601f83011685010191505092915050565b6020815260006112e06020830184612d9c565b80356001600160a01b0381168114612e0c57600080fd5b919050565b60008060408385031215612e2457600080fd5b612e2d83612df5565b946020939093013593505050565b634e487b7160e01b600052604160045260246000fd5b604051608081016001600160401b0381118282101715612e7357612e73612e3b565b60405290565b60405160a081016001600160401b0381118282101715612e7357612e73612e3b565b604051606081016001600160401b0381118282101715612e7357612e73612e3b565b60405160e081016001600160401b0381118282101715612e7357612e73612e3b565b6040516102e081016001600160401b0381118282101715612e7357612e73612e3b565b604051601f8201601f191681016001600160401b0381118282101715612f2a57612f2a612e3b565b604052919050565b600082601f830112612f4357600080fd5b81356001600160401b03811115612f5c57612f5c612e3b565b612f6f601f8201601f1916602001612f02565b818152846020838601011115612f8457600080fd5b816020850160208301376000918101602001919091529392505050565b600060408284031215612fb357600080fd5b604051604081016001600160401b038282108183111715612fd657612fd6612e3b565b816040528293508435915080821115612fee57600080fd5b612ffa86838701612f32565b8352602085013591508082111561301057600080fd5b5061301d85828601612f32565b6020830152505092915050565b6000806040838503121561303d57600080fd5b61304683612df5565b915060208301356001600160401b0381111561306157600080fd5b61306d85828601612fa1565b9150509250929050565b60008060006060848603121561308c57600080fd5b61309584612df5565b92506130a360208501612df5565b9150604084013590509250925092565b6000602082840312156130c557600080fd5b5035919050565b600081518084526020808501808196508360051b8101915082860160005b85811015613114578284038952613102848351612d9c565b988501989350908401906001016130ea565b5091979650505050505050565b600081518084526020808501945080840160005b8381101561315157815187529582019590820190600101613135565b509495945050505050565b6020815261316f60208201835115159052565b6020820151604082015260408201516060820152600060608301516102e08060808501526131a1610300850183612d9c565b91506080850151601f19808685030160a08701526131bf8483612d9c565b935060a08701519150808685030160c08701526131dc84836130cc565b935060c087015191506131fa60e08701836001600160a01b03169052565b60e08701519150610100613218818801846001600160a01b03169052565b87015161012087810191909152870151610140808801919091528701516101608088019190915287015186850382016101808089019190915290925061325e8584612d9c565b908801516101a08881019190915288015190945091506101c061328b818801846001600160a01b03169052565b808801519250506101e08187860301818801526132a88584613121565b9450808801519250506102006132c18188018415159052565b87015191506102206132d68782018415159052565b87015191506102406132eb8782018415159052565b87015191506102606133008782018415159052565b870151610280878101919091528701516102a08088019190915287015186850382016102c0808901919091529092506133398584613121565b945080880151925050506133508286018215159052565b5090949350505050565b60006020828403121561336c57600080fd5b6112e082612df5565b6000806040838503121561338857600080fd5b8235915061339860208401612df5565b90509250929050565b6000806000606084860312156133b657600080fd5b6133bf84612df5565b925060208401356001600160401b03808211156133db57600080fd5b90850190608082880312156133ef57600080fd5b6133f7612e51565b82358152602083013560ff8116811461340f57600080fd5b602082015260408301358281111561342657600080fd5b61343289828601612f32565b60408301525060608301356060820152809450505050604084013590509250925092565b600060a0828403121561346857600080fd5b613470612e79565b9050813581526020820135602082015260408201356001600160401b038082111561349a57600080fd5b6134a685838601612f32565b604084015260608401359150808211156134bf57600080fd5b506134cc84828501612f32565b6060830152506134de60808301612df5565b608082015292915050565b600080604083850312156134fc57600080fd5b61350583612df5565b915060208301356001600160401b0381111561352057600080fd5b61306d85828601613456565b86815285602082015260c06040820152600061354b60c0830187612d9c565b828103606084015261355d8187612d9c565b905084608084015282810360a08401526135778185612d9c565b9998505050505050505050565b8015158114612d7057600080fd5b8035612e0c81613584565b60006001600160401b038211156135b6576135b6612e3b565b5060051b60200190565b600082601f8301126135d157600080fd5b813560206135e66135e18361359d565b612f02565b82815260059290921b8401810191818101908684111561360557600080fd5b8286015b848110156136205780358352918301918301613609565b509695505050505050565b600060a0828403121561363d57600080fd5b613645612e79565b905081358152602082013561365981613584565b6020820152604082013561366c81613584565b604082015260608201356001600160401b038082111561368b57600080fd5b61369785838601612f32565b606084015260808401359150808211156136b057600080fd5b506136bd848285016135c0565b60808301525092915050565b600082601f8301126136da57600080fd5b813560206136ea6135e18361359d565b82815260059290921b8401810191818101908684111561370957600080fd5b8286015b848110156136205780356001600160401b0381111561372c5760008081fd5b61373a8986838b0101612fa1565b84525091830191830161370d565b600082601f83011261375957600080fd5b813560206137696135e18361359d565b82815260059290921b8401810191818101908684111561378857600080fd5b8286015b848110156136205780356001600160401b03808211156137ac5760008081fd5b908801906060828b03601f19018113156137c65760008081fd5b6137ce612e9b565b878401358152604080850135848111156137e85760008081fd5b6137f68e8b83890101612f32565b838b01525091840135918383111561380e5760008081fd5b61381c8d8a85880101612f32565b90820152865250505091830191830161378c565b600082601f83011261384157600080fd5b813560206138516135e18361359d565b82815260059290921b8401810191818101908684111561387057600080fd5b8286015b848110156136205780356001600160401b038111156138935760008081fd5b6138a18986838b0101613456565b845250918301918301613874565b600080604083850312156138c257600080fd5b6138cb83612df5565b915060208301356001600160401b03808211156138e757600080fd5b9084019060e082870312156138fb57600080fd5b613903612ebd565b82358281111561391257600080fd5b61391e88828601612f32565b82525060208301358281111561393357600080fd5b61393f88828601612f32565b60208301525060408301358281111561395757600080fd5b6139638882860161362b565b60408301525060608301358281111561397b57600080fd5b61398788828601612f32565b60608301525060808301358281111561399f57600080fd5b6139ab888286016136c9565b60808301525060a0830135828111156139c357600080fd5b6139cf88828601613748565b60a08301525060c0830135828111156139e757600080fd5b6139f388828601613830565b60c0830152508093505050509250929050565b600082601f830112613a1757600080fd5b81356020613a276135e18361359d565b82815260059290921b84018101918181019086841115613a4657600080fd5b8286015b848110156136205780356001600160401b03811115613a695760008081fd5b613a778986838b0101612f32565b845250918301918301613a4a565b60008060408385031215613a9857600080fd5b613aa183612df5565b915060208301356001600160401b0380821115613abd57600080fd5b908401906102e08287031215613ad257600080fd5b613ada612edf565b613ae383613592565b81526020830135602082015260408301356040820152606083013582811115613b0b57600080fd5b613b1788828601612f32565b606083015250608083013582811115613b2f57600080fd5b613b3b88828601612f32565b60808301525060a083013582811115613b5357600080fd5b613b5f88828601613a06565b60a083015250613b7160c08401612df5565b60c0820152613b8260e08401612df5565b60e08201526101008381013590820152610120808401359082015261014080840135908201526101608084013583811115613bbc57600080fd5b613bc889828701612f32565b8284015250506101808084013581830152506101a0613be8818501612df5565b908201526101c08381013583811115613c0057600080fd5b613c0c898287016135c0565b8284015250506101e0613c20818501613592565b90820152610200613c32848201613592565b90820152610220613c44848201613592565b90820152610240613c56848201613592565b90820152610260838101359082015261028080840135908201526102a08084013583811115613c8457600080fd5b613c90898287016135c0565b8284015250506102c09150613ca6828401613592565b828201528093505050509250929050565b60008060408385031215613cca57600080fd5b613cd383612df5565b915060208301356001600160401b03811115613cee57600080fd5b61306d8582860161362b565b60008060408385031215613d0d57600080fd5b613d1683612df5565b915061339860208401612df5565b600181811c90821680613d3857607f821691505b602082108103613d5857634e487b7160e01b600052602260045260246000fd5b50919050565b601f821115610d9857600081815260208120601f850160051c81016020861015613d855750805b601f850160051c820191505b81811015613da457828155600101613d91565b505050505050565b81516001600160401b03811115613dc557613dc5612e3b565b613dd981613dd38454613d24565b84613d5e565b602080601f831160018114613e0e5760008415613df65750858301515b600019600386901b1c1916600185901b178555613da4565b600085815260208120601f198616915b82811015613e3d57888601518255948401946001909101908401613e1e565b5085821015613e5b5787850151600019600388901b60f8161c191681555b5050505050600190811b01905550565b634e487b7160e01b600052603260045260246000fd5b600060208284031215613e9357600080fd5b81516112e081613584565b600060018201613eb057613eb0612d73565b5060010190565b80820281158282048414176107df576107df612d73565b6001600160a01b03838116825260406020808401829052845182850152840151606084015283015160a0608084015260009190613f0e60e0850182612d9c565b90506060850151603f198583030160a0860152613f2b8282612d9c565b9150508160808601511660c085015280925050509392505050565b60018060a01b03831681526040602082015260008251604080840152613f6f6080840182612d9c565b90506020840151603f19848303016060850152613f8c8282612d9c565b9695505050505050565b6020808252602d908201527f7761697420666f72207468652061737369676e656520746f20636f6e6669726d60408201526c20636f6d706c6574656e65737360981b606082015260800190565b600060208284031215613ff557600080fd5b5051919050565b60208082526035908201527f416d6f756e7420617070726f766564206973206c657373207468656e20746f6b604082015274195b881d1c985b9cd9995c9c995908185b5bdd5b9d605a1b606082015260800190565b818103818111156107df576107df612d7356fea2646970667358221220d9f3a284c0b7f4569833925faa12e52a11ec84cc1a44330e7974ad90e28cf98c64736f6c63430008130033",
  "devdoc": {
    "events": {
      "Approval(address,address,uint256)": {
        "details": "Emitted when the allowance of a `spender` for an `owner` is set by a call to {approve}. `value` is the new allowance."
      },
      "Transfer(address,address,uint256)": {
        "details": "Emitted when `value` tokens are moved from one account (`from`) to another (`to`). Note that `value` may be zero."
      }
    },
    "kind": "dev",
    "methods": {
      "approve(address,uint256)": {
        "details": "See {IERC20-approve}. NOTE: If `amount` is the maximum `uint256`, the allowance is not updated on `transferFrom`. This is semantically equivalent to an infinite approval. Requirements: - `spender` cannot be the zero address."
      },
      "balanceOf(address)": {
        "details": "See {IERC20-balanceOf}."
      },
      "decimals()": {
        "details": "Returns the number of decimals used to get its user representation. For example, if `decimals` equals `2`, a balance of `505` tokens should be displayed to a user as `5.05` (`505 / 10 ** 2`). Tokens usually opt for a value of 18, imitating the relationship between Ether and Wei. This is the value {ERC20} uses, unless this function is overridden; NOTE: This information is only used for _display_ purposes: it in no way affects any of the arithmetic of the contract, including {IERC20-balanceOf} and {IERC20-transfer}."
      },
      "decreaseAllowance(address,uint256)": {
        "details": "Atomically decreases the allowance granted to `spender` by the caller. This is an alternative to {approve} that can be used as a mitigation for problems described in {IERC20-approve}. Emits an {Approval} event indicating the updated allowance. Requirements: - `spender` cannot be the zero address. - `spender` must have allowance for the caller of at least `subtractedValue`."
      },
      "increaseAllowance(address,uint256)": {
        "details": "Atomically increases the allowance granted to `spender` by the caller. This is an alternative to {approve} that can be used as a mitigation for problems described in {IERC20-approve}. Emits an {Approval} event indicating the updated allowance. Requirements: - `spender` cannot be the zero address."
      },
      "name()": {
        "details": "Returns the name of the token."
      },
      "ownerWithdraw(address,uint256)": {
        "params": {
          "_token": "s",
          "jobId": "we"
        }
      },
      "symbol()": {
        "details": "Returns the symbol of the token, usually a shorter version of the name."
      },
      "totalSupply()": {
        "details": "See {IERC20-totalSupply}."
      },
      "transfer(address,uint256)": {
        "details": "See {IERC20-transfer}. Requirements: - `to` cannot be the zero address. - the caller must have a balance of at least `amount`."
      },
      "transferFrom(address,address,uint256)": {
        "details": "See {IERC20-transferFrom}. Emits an {Approval} event indicating the updated allowance. This is not required by the EIP. See the note at the beginning of {ERC20}. NOTE: Does not update the allowance if the current allowance is the maximum `uint256`. Requirements: - `from` and `to` cannot be the zero address. - `from` must have a balance of at least `amount`. - the caller must have allowance for ``from``'s tokens of at least `amount`."
      }
    },
    "version": 1
  },
  "userdoc": {
    "kind": "user",
    "methods": {},
    "version": 1
  },
  "storageLayout": {
    "storage": [
      {
        "astId": 69,
        "contract": "contracts/Detasker.sol:Detasker",
        "label": "_balances",
        "offset": 0,
        "slot": "0",
        "type": "t_mapping(t_address,t_uint256)"
      },
      {
        "astId": 75,
        "contract": "contracts/Detasker.sol:Detasker",
        "label": "_allowances",
        "offset": 0,
        "slot": "1",
        "type": "t_mapping(t_address,t_mapping(t_address,t_uint256))"
      },
      {
        "astId": 77,
        "contract": "contracts/Detasker.sol:Detasker",
        "label": "_totalSupply",
        "offset": 0,
        "slot": "2",
        "type": "t_uint256"
      },
      {
        "astId": 79,
        "contract": "contracts/Detasker.sol:Detasker",
        "label": "_name",
        "offset": 0,
        "slot": "3",
        "type": "t_string_storage"
      },
      {
        "astId": 81,
        "contract": "contracts/Detasker.sol:Detasker",
        "label": "_symbol",
        "offset": 0,
        "slot": "4",
        "type": "t_string_storage"
      },
      {
        "astId": 779,
        "contract": "contracts/Detasker.sol:Detasker",
        "label": "users",
        "offset": 0,
        "slot": "5",
        "type": "t_mapping(t_address,t_struct(Profile)966_storage)"
      },
      {
        "astId": 782,
        "contract": "contracts/Detasker.sol:Detasker",
        "label": "vars",
        "offset": 0,
        "slot": "6",
        "type": "t_struct(Item)840_storage"
      },
      {
        "astId": 787,
        "contract": "contracts/Detasker.sol:Detasker",
        "label": "timeForConformation",
        "offset": 0,
        "slot": "19",
        "type": "t_uint256"
      }
    ],
    "types": {
      "t_address": {
        "encoding": "inplace",
        "label": "address",
        "numberOfBytes": "20"
      },
      "t_array(t_string_storage)dyn_storage": {
        "base": "t_string_storage",
        "encoding": "dynamic_array",
        "label": "string[]",
        "numberOfBytes": "32"
      },
      "t_array(t_struct(Dispute)845_storage)dyn_storage": {
        "base": "t_struct(Dispute)845_storage",
        "encoding": "dynamic_array",
        "label": "struct Detasker.Dispute[]",
        "numberOfBytes": "32"
      },
      "t_array(t_struct(Freelance)857_storage)dyn_storage": {
        "base": "t_struct(Freelance)857_storage",
        "encoding": "dynamic_array",
        "label": "struct Detasker.Freelance[]",
        "numberOfBytes": "32"
      },
      "t_array(t_struct(Job)907_storage)dyn_storage": {
        "base": "t_struct(Job)907_storage",
        "encoding": "dynamic_array",
        "label": "struct Detasker.Job[]",
        "numberOfBytes": "32"
      },
      "t_array(t_struct(Rating)928_storage)dyn_storage": {
        "base": "t_struct(Rating)928_storage",
        "encoding": "dynamic_array",
        "label": "struct Detasker.Rating[]",
        "numberOfBytes": "32"
      },
      "t_array(t_struct(Skill)939_storage)dyn_storage": {
        "base": "t_struct(Skill)939_storage",
        "encoding": "dynamic_array",
        "label": "struct Detasker.Skill[]",
        "numberOfBytes": "32"
      },
      "t_array(t_struct(Social)993_storage)dyn_storage": {
        "base": "t_struct(Social)993_storage",
        "encoding": "dynamic_array",
        "label": "struct Detasker.Social[]",
        "numberOfBytes": "32"
      },
      "t_array(t_uint256)dyn_storage": {
        "base": "t_uint256",
        "encoding": "dynamic_array",
        "label": "uint256[]",
        "numberOfBytes": "32"
      },
      "t_bool": {
        "encoding": "inplace",
        "label": "bool",
        "numberOfBytes": "1"
      },
      "t_mapping(t_address,t_mapping(t_address,t_uint256))": {
        "encoding": "mapping",
        "key": "t_address",
        "label": "mapping(address => mapping(address => uint256))",
        "numberOfBytes": "32",
        "value": "t_mapping(t_address,t_uint256)"
      },
      "t_mapping(t_address,t_struct(Profile)966_storage)": {
        "encoding": "mapping",
        "key": "t_address",
        "label": "mapping(address => struct Detasker.Profile)",
        "numberOfBytes": "32",
        "value": "t_struct(Profile)966_storage"
      },
      "t_mapping(t_address,t_uint256)": {
        "encoding": "mapping",
        "key": "t_address",
        "label": "mapping(address => uint256)",
        "numberOfBytes": "32",
        "value": "t_uint256"
      },
      "t_string_storage": {
        "encoding": "bytes",
        "label": "string",
        "numberOfBytes": "32"
      },
      "t_struct(Dispute)845_storage": {
        "encoding": "inplace",
        "label": "struct Detasker.Dispute",
        "members": [
          {
            "astId": 842,
            "contract": "contracts/Detasker.sol:Detasker",
            "label": "reason",
            "offset": 0,
            "slot": "0",
            "type": "t_string_storage"
          },
          {
            "astId": 844,
            "contract": "contracts/Detasker.sol:Detasker",
            "label": "timestamp",
            "offset": 0,
            "slot": "1",
            "type": "t_uint256"
          }
        ],
        "numberOfBytes": "64"
      },
      "t_struct(Freelance)857_storage": {
        "encoding": "inplace",
        "label": "struct Detasker.Freelance",
        "members": [
          {
            "astId": 847,
            "contract": "contracts/Detasker.sol:Detasker",
            "label": "id",
            "offset": 0,
            "slot": "0",
            "type": "t_uint256"
          },
          {
            "astId": 849,
            "contract": "contracts/Detasker.sol:Detasker",
            "label": "isFreelancer",
            "offset": 0,
            "slot": "1",
            "type": "t_bool"
          },
          {
            "astId": 851,
            "contract": "contracts/Detasker.sol:Detasker",
            "label": "active",
            "offset": 1,
            "slot": "1",
            "type": "t_bool"
          },
          {
            "astId": 853,
            "contract": "contracts/Detasker.sol:Detasker",
            "label": "mainSkills",
            "offset": 0,
            "slot": "2",
            "type": "t_string_storage"
          },
          {
            "astId": 856,
            "contract": "contracts/Detasker.sol:Detasker",
            "label": "skillsId",
            "offset": 0,
            "slot": "3",
            "type": "t_array(t_uint256)dyn_storage"
          }
        ],
        "numberOfBytes": "128"
      },
      "t_struct(Item)840_storage": {
        "encoding": "inplace",
        "label": "struct Detasker.Item",
        "members": [
          {
            "astId": 805,
            "contract": "contracts/Detasker.sol:Detasker",
            "label": "owner",
            "offset": 0,
            "slot": "0",
            "type": "t_address"
          },
          {
            "astId": 809,
            "contract": "contracts/Detasker.sol:Detasker",
            "label": "jobs",
            "offset": 0,
            "slot": "1",
            "type": "t_array(t_struct(Job)907_storage)dyn_storage"
          },
          {
            "astId": 813,
            "contract": "contracts/Detasker.sol:Detasker",
            "label": "ratings",
            "offset": 0,
            "slot": "2",
            "type": "t_array(t_struct(Rating)928_storage)dyn_storage"
          },
          {
            "astId": 817,
            "contract": "contracts/Detasker.sol:Detasker",
            "label": "skills",
            "offset": 0,
            "slot": "3",
            "type": "t_array(t_struct(Skill)939_storage)dyn_storage"
          },
          {
            "astId": 821,
            "contract": "contracts/Detasker.sol:Detasker",
            "label": "dispute",
            "offset": 0,
            "slot": "4",
            "type": "t_array(t_struct(Dispute)845_storage)dyn_storage"
          },
          {
            "astId": 825,
            "contract": "contracts/Detasker.sol:Detasker",
            "label": "freelance",
            "offset": 0,
            "slot": "5",
            "type": "t_array(t_struct(Freelance)857_storage)dyn_storage"
          },
          {
            "astId": 827,
            "contract": "contracts/Detasker.sol:Detasker",
            "label": "jobCount",
            "offset": 0,
            "slot": "6",
            "type": "t_uint256"
          },
          {
            "astId": 829,
            "contract": "contracts/Detasker.sol:Detasker",
            "label": "freelanceCount",
            "offset": 0,
            "slot": "7",
            "type": "t_uint256"
          },
          {
            "astId": 831,
            "contract": "contracts/Detasker.sol:Detasker",
            "label": "ratingCount",
            "offset": 0,
            "slot": "8",
            "type": "t_uint256"
          },
          {
            "astId": 833,
            "contract": "contracts/Detasker.sol:Detasker",
            "label": "tagCount",
            "offset": 0,
            "slot": "9",
            "type": "t_uint256"
          },
          {
            "astId": 835,
            "contract": "contracts/Detasker.sol:Detasker",
            "label": "skillCount",
            "offset": 0,
            "slot": "10",
            "type": "t_uint256"
          },
          {
            "astId": 837,
            "contract": "contracts/Detasker.sol:Detasker",
            "label": "userCount",
            "offset": 0,
            "slot": "11",
            "type": "t_uint256"
          },
          {
            "astId": 839,
            "contract": "contracts/Detasker.sol:Detasker",
            "label": "bnbToken",
            "offset": 0,
            "slot": "12",
            "type": "t_address"
          }
        ],
        "numberOfBytes": "416"
      },
      "t_struct(Job)907_storage": {
        "encoding": "inplace",
        "label": "struct Detasker.Job",
        "members": [
          {
            "astId": 859,
            "contract": "contracts/Detasker.sol:Detasker",
            "label": "hasFunds",
            "offset": 0,
            "slot": "0",
            "type": "t_bool"
          },
          {
            "astId": 861,
            "contract": "contracts/Detasker.sol:Detasker",
            "label": "id",
            "offset": 0,
            "slot": "1",
            "type": "t_uint256"
          },
          {
            "astId": 863,
            "contract": "contracts/Detasker.sol:Detasker",
            "label": "profileId",
            "offset": 0,
            "slot": "2",
            "type": "t_uint256"
          },
          {
            "astId": 865,
            "contract": "contracts/Detasker.sol:Detasker",
            "label": "title",
            "offset": 0,
            "slot": "3",
            "type": "t_string_storage"
          },
          {
            "astId": 867,
            "contract": "contracts/Detasker.sol:Detasker",
            "label": "description",
            "offset": 0,
            "slot": "4",
            "type": "t_string_storage"
          },
          {
            "astId": 870,
            "contract": "contracts/Detasker.sol:Detasker",
            "label": "img",
            "offset": 0,
            "slot": "5",
            "type": "t_array(t_string_storage)dyn_storage"
          },
          {
            "astId": 872,
            "contract": "contracts/Detasker.sol:Detasker",
            "label": "owner",
            "offset": 0,
            "slot": "6",
            "type": "t_address"
          },
          {
            "astId": 874,
            "contract": "contracts/Detasker.sol:Detasker",
            "label": "requester",
            "offset": 0,
            "slot": "7",
            "type": "t_address"
          },
          {
            "astId": 876,
            "contract": "contracts/Detasker.sol:Detasker",
            "label": "postedDate",
            "offset": 0,
            "slot": "8",
            "type": "t_uint256"
          },
          {
            "astId": 878,
            "contract": "contracts/Detasker.sol:Detasker",
            "label": "date",
            "offset": 0,
            "slot": "9",
            "type": "t_uint256"
          },
          {
            "astId": 880,
            "contract": "contracts/Detasker.sol:Detasker",
            "label": "datePaid",
            "offset": 0,
            "slot": "10",
            "type": "t_uint256"
          },
          {
            "astId": 882,
            "contract": "contracts/Detasker.sol:Detasker",
            "label": "documents",
            "offset": 0,
            "slot": "11",
            "type": "t_string_storage"
          },
          {
            "astId": 884,
            "contract": "contracts/Detasker.sol:Detasker",
            "label": "requestedPaymentAmount",
            "offset": 0,
            "slot": "12",
            "type": "t_uint256"
          },
          {
            "astId": 886,
            "contract": "contracts/Detasker.sol:Detasker",
            "label": "token",
            "offset": 0,
            "slot": "13",
            "type": "t_address"
          },
          {
            "astId": 889,
            "contract": "contracts/Detasker.sol:Detasker",
            "label": "tags",
            "offset": 0,
            "slot": "14",
            "type": "t_array(t_uint256)dyn_storage"
          },
          {
            "astId": 891,
            "contract": "contracts/Detasker.sol:Detasker",
            "label": "publish",
            "offset": 0,
            "slot": "15",
            "type": "t_bool"
          },
          {
            "astId": 893,
            "contract": "contracts/Detasker.sol:Detasker",
            "label": "completed",
            "offset": 1,
            "slot": "15",
            "type": "t_bool"
          },
          {
            "astId": 895,
            "contract": "contracts/Detasker.sol:Detasker",
            "label": "paid",
            "offset": 2,
            "slot": "15",
            "type": "t_bool"
          },
          {
            "astId": 897,
            "contract": "contracts/Detasker.sol:Detasker",
            "label": "assigned",
            "offset": 3,
            "slot": "15",
            "type": "t_bool"
          },
          {
            "astId": 899,
            "contract": "contracts/Detasker.sol:Detasker",
            "label": "dateCompleted",
            "offset": 0,
            "slot": "16",
            "type": "t_uint256"
          },
          {
            "astId": 901,
            "contract": "contracts/Detasker.sol:Detasker",
            "label": "datePublished",
            "offset": 0,
            "slot": "17",
            "type": "t_uint256"
          },
          {
            "astId": 904,
            "contract": "contracts/Detasker.sol:Detasker",
            "label": "dispute",
            "offset": 0,
            "slot": "18",
            "type": "t_array(t_uint256)dyn_storage"
          },
          {
            "astId": 906,
            "contract": "contracts/Detasker.sol:Detasker",
            "label": "deleted",
            "offset": 0,
            "slot": "19",
            "type": "t_bool"
          }
        ],
        "numberOfBytes": "640"
      },
      "t_struct(Profile)966_storage": {
        "encoding": "inplace",
        "label": "struct Detasker.Profile",
        "members": [
          {
            "astId": 941,
            "contract": "contracts/Detasker.sol:Detasker",
            "label": "id",
            "offset": 0,
            "slot": "0",
            "type": "t_uint256"
          },
          {
            "astId": 943,
            "contract": "contracts/Detasker.sol:Detasker",
            "label": "freeLanceId",
            "offset": 0,
            "slot": "1",
            "type": "t_uint256"
          },
          {
            "astId": 945,
            "contract": "contracts/Detasker.sol:Detasker",
            "label": "name",
            "offset": 0,
            "slot": "2",
            "type": "t_string_storage"
          },
          {
            "astId": 947,
            "contract": "contracts/Detasker.sol:Detasker",
            "label": "email",
            "offset": 0,
            "slot": "3",
            "type": "t_string_storage"
          },
          {
            "astId": 951,
            "contract": "contracts/Detasker.sol:Detasker",
            "label": "socials",
            "offset": 0,
            "slot": "4",
            "type": "t_array(t_struct(Social)993_storage)dyn_storage"
          },
          {
            "astId": 953,
            "contract": "contracts/Detasker.sol:Detasker",
            "label": "signedUp",
            "offset": 0,
            "slot": "5",
            "type": "t_uint256"
          },
          {
            "astId": 955,
            "contract": "contracts/Detasker.sol:Detasker",
            "label": "image",
            "offset": 0,
            "slot": "6",
            "type": "t_string_storage"
          },
          {
            "astId": 958,
            "contract": "contracts/Detasker.sol:Detasker",
            "label": "jobsId",
            "offset": 0,
            "slot": "7",
            "type": "t_array(t_uint256)dyn_storage"
          },
          {
            "astId": 961,
            "contract": "contracts/Detasker.sol:Detasker",
            "label": "ratings",
            "offset": 0,
            "slot": "8",
            "type": "t_array(t_uint256)dyn_storage"
          },
          {
            "astId": 965,
            "contract": "contracts/Detasker.sol:Detasker",
            "label": "escrow",
            "offset": 0,
            "slot": "9",
            "type": "t_mapping(t_address,t_uint256)"
          }
        ],
        "numberOfBytes": "320"
      },
      "t_struct(Rating)928_storage": {
        "encoding": "inplace",
        "label": "struct Detasker.Rating",
        "members": [
          {
            "astId": 921,
            "contract": "contracts/Detasker.sol:Detasker",
            "label": "id",
            "offset": 0,
            "slot": "0",
            "type": "t_uint256"
          },
          {
            "astId": 923,
            "contract": "contracts/Detasker.sol:Detasker",
            "label": "rating",
            "offset": 0,
            "slot": "1",
            "type": "t_uint8"
          },
          {
            "astId": 925,
            "contract": "contracts/Detasker.sol:Detasker",
            "label": "review",
            "offset": 0,
            "slot": "2",
            "type": "t_string_storage"
          },
          {
            "astId": 927,
            "contract": "contracts/Detasker.sol:Detasker",
            "label": "jobId",
            "offset": 0,
            "slot": "3",
            "type": "t_uint256"
          }
        ],
        "numberOfBytes": "128"
      },
      "t_struct(Skill)939_storage": {
        "encoding": "inplace",
        "label": "struct Detasker.Skill",
        "members": [
          {
            "astId": 930,
            "contract": "contracts/Detasker.sol:Detasker",
            "label": "id",
            "offset": 0,
            "slot": "0",
            "type": "t_uint256"
          },
          {
            "astId": 932,
            "contract": "contracts/Detasker.sol:Detasker",
            "label": "profileId",
            "offset": 0,
            "slot": "1",
            "type": "t_uint256"
          },
          {
            "astId": 934,
            "contract": "contracts/Detasker.sol:Detasker",
            "label": "skill",
            "offset": 0,
            "slot": "2",
            "type": "t_string_storage"
          },
          {
            "astId": 936,
            "contract": "contracts/Detasker.sol:Detasker",
            "label": "url",
            "offset": 0,
            "slot": "3",
            "type": "t_string_storage"
          },
          {
            "astId": 938,
            "contract": "contracts/Detasker.sol:Detasker",
            "label": "user",
            "offset": 0,
            "slot": "4",
            "type": "t_address"
          }
        ],
        "numberOfBytes": "160"
      },
      "t_struct(Social)993_storage": {
        "encoding": "inplace",
        "label": "struct Detasker.Social",
        "members": [
          {
            "astId": 990,
            "contract": "contracts/Detasker.sol:Detasker",
            "label": "name",
            "offset": 0,
            "slot": "0",
            "type": "t_string_storage"
          },
          {
            "astId": 992,
            "contract": "contracts/Detasker.sol:Detasker",
            "label": "url",
            "offset": 0,
            "slot": "1",
            "type": "t_string_storage"
          }
        ],
        "numberOfBytes": "64"
      },
      "t_uint256": {
        "encoding": "inplace",
        "label": "uint256",
        "numberOfBytes": "32"
      },
      "t_uint8": {
        "encoding": "inplace",
        "label": "uint8",
        "numberOfBytes": "1"
      }
    }
  }
}